{
  "_format": "hh-sol-artifact-1",
  "contractName": "YunaTokenRouter",
  "sourceName": "contracts/YunaTokenRouter.sol",
  "abi": [
    {
      "inputs": [
        {
          "internalType": "address",
          "name": "_liquidityManager",
          "type": "address"
        },
        {
          "internalType": "address",
          "name": "_dex",
          "type": "address"
        },
        {
          "internalType": "address",
          "name": "_creatorTokenFactory",
          "type": "address"
        }
      ],
      "stateMutability": "nonpayable",
      "type": "constructor"
    },
    {
      "inputs": [
        {
          "internalType": "address",
          "name": "owner",
          "type": "address"
        }
      ],
      "name": "OwnableInvalidOwner",
      "type": "error"
    },
    {
      "inputs": [
        {
          "internalType": "address",
          "name": "account",
          "type": "address"
        }
      ],
      "name": "OwnableUnauthorizedAccount",
      "type": "error"
    },
    {
      "inputs": [],
      "name": "ReentrancyGuardReentrantCall",
      "type": "error"
    },
    {
      "inputs": [
        {
          "internalType": "address",
          "name": "token",
          "type": "address"
        }
      ],
      "name": "SafeERC20FailedOperation",
      "type": "error"
    },
    {
      "anonymous": false,
      "inputs": [
        {
          "indexed": true,
          "internalType": "address",
          "name": "token",
          "type": "address"
        },
        {
          "indexed": false,
          "internalType": "uint256",
          "name": "amount",
          "type": "uint256"
        },
        {
          "indexed": false,
          "internalType": "uint256",
          "name": "timestamp",
          "type": "uint256"
        }
      ],
      "name": "ApprovalGranted",
      "type": "event"
    },
    {
      "anonymous": false,
      "inputs": [
        {
          "indexed": true,
          "internalType": "address",
          "name": "token",
          "type": "address"
        },
        {
          "indexed": false,
          "internalType": "uint256",
          "name": "timestamp",
          "type": "uint256"
        }
      ],
      "name": "ApprovalRevoked",
      "type": "event"
    },
    {
      "anonymous": false,
      "inputs": [
        {
          "indexed": true,
          "internalType": "address",
          "name": "token",
          "type": "address"
        },
        {
          "indexed": false,
          "internalType": "uint256",
          "name": "amountIn",
          "type": "uint256"
        },
        {
          "indexed": false,
          "internalType": "uint256",
          "name": "amountOut",
          "type": "uint256"
        }
      ],
      "name": "ETHSwappedForToken",
      "type": "event"
    },
    {
      "anonymous": false,
      "inputs": [
        {
          "indexed": true,
          "internalType": "address",
          "name": "token",
          "type": "address"
        },
        {
          "indexed": true,
          "internalType": "address",
          "name": "to",
          "type": "address"
        },
        {
          "indexed": false,
          "internalType": "uint256",
          "name": "amount",
          "type": "uint256"
        },
        {
          "indexed": false,
          "internalType": "uint256",
          "name": "timestamp",
          "type": "uint256"
        },
        {
          "indexed": false,
          "internalType": "enum YunaTokenRouter.WithdrawReason",
          "name": "reason",
          "type": "uint8"
        }
      ],
      "name": "EmergencyWithdraw",
      "type": "event"
    },
    {
      "anonymous": false,
      "inputs": [
        {
          "indexed": true,
          "internalType": "address",
          "name": "previousOwner",
          "type": "address"
        },
        {
          "indexed": true,
          "internalType": "address",
          "name": "newOwner",
          "type": "address"
        }
      ],
      "name": "OwnershipTransferred",
      "type": "event"
    },
    {
      "anonymous": false,
      "inputs": [
        {
          "indexed": true,
          "internalType": "bool",
          "name": "isPaused",
          "type": "bool"
        },
        {
          "indexed": false,
          "internalType": "uint256",
          "name": "timestamp",
          "type": "uint256"
        },
        {
          "indexed": true,
          "internalType": "address",
          "name": "actor",
          "type": "address"
        }
      ],
      "name": "PauseStateChanged",
      "type": "event"
    },
    {
      "anonymous": false,
      "inputs": [
        {
          "indexed": true,
          "internalType": "address",
          "name": "token",
          "type": "address"
        },
        {
          "indexed": false,
          "internalType": "uint256",
          "name": "timestamp",
          "type": "uint256"
        }
      ],
      "name": "PriceDiscoveryCompleted",
      "type": "event"
    },
    {
      "anonymous": false,
      "inputs": [
        {
          "indexed": true,
          "internalType": "address",
          "name": "token",
          "type": "address"
        },
        {
          "indexed": false,
          "internalType": "uint256",
          "name": "timestamp",
          "type": "uint256"
        }
      ],
      "name": "PriceDiscoveryFailed",
      "type": "event"
    },
    {
      "anonymous": false,
      "inputs": [
        {
          "indexed": false,
          "internalType": "uint256",
          "name": "oldSlippage",
          "type": "uint256"
        },
        {
          "indexed": false,
          "internalType": "uint256",
          "name": "newSlippage",
          "type": "uint256"
        }
      ],
      "name": "SlippageUpdated",
      "type": "event"
    },
    {
      "anonymous": false,
      "inputs": [
        {
          "indexed": true,
          "internalType": "address",
          "name": "token",
          "type": "address"
        },
        {
          "indexed": false,
          "internalType": "uint256",
          "name": "initialLiquidity",
          "type": "uint256"
        }
      ],
      "name": "TokenAutoListed",
      "type": "event"
    },
    {
      "anonymous": false,
      "inputs": [
        {
          "indexed": true,
          "internalType": "address",
          "name": "creatorToken",
          "type": "address"
        }
      ],
      "name": "TokenListed",
      "type": "event"
    },
    {
      "anonymous": false,
      "inputs": [
        {
          "indexed": true,
          "internalType": "address",
          "name": "token",
          "type": "address"
        },
        {
          "indexed": false,
          "internalType": "uint256",
          "name": "amountIn",
          "type": "uint256"
        },
        {
          "indexed": false,
          "internalType": "uint256",
          "name": "amountOut",
          "type": "uint256"
        }
      ],
      "name": "TokenSwappedForETH",
      "type": "event"
    },
    {
      "stateMutability": "payable",
      "type": "fallback"
    },
    {
      "inputs": [],
      "name": "APPROVAL_TIMEOUT",
      "outputs": [
        {
          "internalType": "uint256",
          "name": "",
          "type": "uint256"
        }
      ],
      "stateMutability": "view",
      "type": "function"
    },
    {
      "inputs": [],
      "name": "ETH_ADDRESS",
      "outputs": [
        {
          "internalType": "address",
          "name": "",
          "type": "address"
        }
      ],
      "stateMutability": "view",
      "type": "function"
    },
    {
      "inputs": [],
      "name": "MAX_INITIAL_ETH",
      "outputs": [
        {
          "internalType": "uint256",
          "name": "",
          "type": "uint256"
        }
      ],
      "stateMutability": "view",
      "type": "function"
    },
    {
      "inputs": [],
      "name": "MIN_INITIAL_ETH",
      "outputs": [
        {
          "internalType": "uint256",
          "name": "",
          "type": "uint256"
        }
      ],
      "stateMutability": "view",
      "type": "function"
    },
    {
      "inputs": [
        {
          "internalType": "uint256",
          "name": "subscriberCount",
          "type": "uint256"
        }
      ],
      "name": "calculateInitialLiquidity",
      "outputs": [
        {
          "internalType": "uint256",
          "name": "",
          "type": "uint256"
        }
      ],
      "stateMutability": "pure",
      "type": "function"
    },
    {
      "inputs": [
        {
          "internalType": "address",
          "name": "token",
          "type": "address"
        }
      ],
      "name": "completePriceDiscovery",
      "outputs": [],
      "stateMutability": "nonpayable",
      "type": "function"
    },
    {
      "inputs": [],
      "name": "creatorTokenFactory",
      "outputs": [
        {
          "internalType": "contract ICreatorCoin",
          "name": "",
          "type": "address"
        }
      ],
      "stateMutability": "view",
      "type": "function"
    },
    {
      "inputs": [],
      "name": "defaultMaxSlippage",
      "outputs": [
        {
          "internalType": "uint256",
          "name": "",
          "type": "uint256"
        }
      ],
      "stateMutability": "view",
      "type": "function"
    },
    {
      "inputs": [],
      "name": "dex",
      "outputs": [
        {
          "internalType": "contract YunaDEX",
          "name": "",
          "type": "address"
        }
      ],
      "stateMutability": "view",
      "type": "function"
    },
    {
      "inputs": [
        {
          "internalType": "address payable",
          "name": "to",
          "type": "address"
        },
        {
          "internalType": "uint256",
          "name": "amount",
          "type": "uint256"
        },
        {
          "internalType": "enum YunaTokenRouter.WithdrawReason",
          "name": "reason",
          "type": "uint8"
        }
      ],
      "name": "emergencyWithdrawETH",
      "outputs": [],
      "stateMutability": "nonpayable",
      "type": "function"
    },
    {
      "inputs": [
        {
          "internalType": "address",
          "name": "token",
          "type": "address"
        },
        {
          "internalType": "address",
          "name": "to",
          "type": "address"
        },
        {
          "internalType": "uint256",
          "name": "amount",
          "type": "uint256"
        },
        {
          "internalType": "enum YunaTokenRouter.WithdrawReason",
          "name": "reason",
          "type": "uint8"
        }
      ],
      "name": "emergencyWithdrawToken",
      "outputs": [],
      "stateMutability": "nonpayable",
      "type": "function"
    },
    {
      "inputs": [],
      "name": "getPauseState",
      "outputs": [
        {
          "internalType": "bool",
          "name": "isPaused",
          "type": "bool"
        },
        {
          "internalType": "uint256",
          "name": "lastChange",
          "type": "uint256"
        },
        {
          "internalType": "uint256",
          "name": "duration",
          "type": "uint256"
        }
      ],
      "stateMutability": "view",
      "type": "function"
    },
    {
      "inputs": [
        {
          "internalType": "address",
          "name": "",
          "type": "address"
        }
      ],
      "name": "hasOpenApproval",
      "outputs": [
        {
          "internalType": "bool",
          "name": "",
          "type": "bool"
        }
      ],
      "stateMutability": "view",
      "type": "function"
    },
    {
      "inputs": [
        {
          "internalType": "address",
          "name": "",
          "type": "address"
        }
      ],
      "name": "inPriceDiscovery",
      "outputs": [
        {
          "internalType": "bool",
          "name": "",
          "type": "bool"
        }
      ],
      "stateMutability": "view",
      "type": "function"
    },
    {
      "inputs": [],
      "name": "lastApprovalTimestamp",
      "outputs": [
        {
          "internalType": "uint256",
          "name": "",
          "type": "uint256"
        }
      ],
      "stateMutability": "view",
      "type": "function"
    },
    {
      "inputs": [],
      "name": "lastPauseChange",
      "outputs": [
        {
          "internalType": "uint256",
          "name": "",
          "type": "uint256"
        }
      ],
      "stateMutability": "view",
      "type": "function"
    },
    {
      "inputs": [],
      "name": "liquidityManager",
      "outputs": [
        {
          "internalType": "contract YunaLiquidityManager",
          "name": "",
          "type": "address"
        }
      ],
      "stateMutability": "view",
      "type": "function"
    },
    {
      "inputs": [
        {
          "internalType": "address",
          "name": "creatorToken",
          "type": "address"
        }
      ],
      "name": "listNewCreatorToken",
      "outputs": [],
      "stateMutability": "nonpayable",
      "type": "function"
    },
    {
      "inputs": [
        {
          "internalType": "address",
          "name": "",
          "type": "address"
        }
      ],
      "name": "listedTokens",
      "outputs": [
        {
          "internalType": "bool",
          "name": "",
          "type": "bool"
        }
      ],
      "stateMutability": "view",
      "type": "function"
    },
    {
      "inputs": [
        {
          "internalType": "address",
          "name": "token",
          "type": "address"
        },
        {
          "internalType": "uint256",
          "name": "subscriberCount",
          "type": "uint256"
        }
      ],
      "name": "onTokenMinted",
      "outputs": [],
      "stateMutability": "payable",
      "type": "function"
    },
    {
      "inputs": [],
      "name": "owner",
      "outputs": [
        {
          "internalType": "address",
          "name": "",
          "type": "address"
        }
      ],
      "stateMutability": "view",
      "type": "function"
    },
    {
      "inputs": [],
      "name": "paused",
      "outputs": [
        {
          "internalType": "bool",
          "name": "",
          "type": "bool"
        }
      ],
      "stateMutability": "view",
      "type": "function"
    },
    {
      "inputs": [],
      "name": "renounceOwnership",
      "outputs": [],
      "stateMutability": "nonpayable",
      "type": "function"
    },
    {
      "inputs": [
        {
          "internalType": "address",
          "name": "token",
          "type": "address"
        }
      ],
      "name": "revokeApproval",
      "outputs": [],
      "stateMutability": "nonpayable",
      "type": "function"
    },
    {
      "inputs": [
        {
          "internalType": "address",
          "name": "token",
          "type": "address"
        },
        {
          "internalType": "uint256",
          "name": "minAmountOut",
          "type": "uint256"
        }
      ],
      "name": "swapETHForToken",
      "outputs": [
        {
          "internalType": "uint256",
          "name": "",
          "type": "uint256"
        }
      ],
      "stateMutability": "payable",
      "type": "function"
    },
    {
      "inputs": [
        {
          "internalType": "address",
          "name": "token",
          "type": "address"
        },
        {
          "internalType": "uint256",
          "name": "tokenAmount",
          "type": "uint256"
        },
        {
          "internalType": "uint256",
          "name": "minETHOut",
          "type": "uint256"
        }
      ],
      "name": "swapTokenForETH",
      "outputs": [
        {
          "internalType": "uint256",
          "name": "",
          "type": "uint256"
        }
      ],
      "stateMutability": "nonpayable",
      "type": "function"
    },
    {
      "inputs": [],
      "name": "togglePause",
      "outputs": [],
      "stateMutability": "nonpayable",
      "type": "function"
    },
    {
      "inputs": [
        {
          "internalType": "address",
          "name": "newOwner",
          "type": "address"
        }
      ],
      "name": "transferOwnership",
      "outputs": [],
      "stateMutability": "nonpayable",
      "type": "function"
    },
    {
      "inputs": [
        {
          "internalType": "address",
          "name": "creatorToken",
          "type": "address"
        },
        {
          "internalType": "uint256",
          "name": "newReserveETH",
          "type": "uint256"
        }
      ],
      "name": "updateAIRebalance",
      "outputs": [],
      "stateMutability": "payable",
      "type": "function"
    },
    {
      "inputs": [
        {
          "internalType": "uint256",
          "name": "newSlippage",
          "type": "uint256"
        }
      ],
      "name": "updateDefaultMaxSlippage",
      "outputs": [],
      "stateMutability": "nonpayable",
      "type": "function"
    },
    {
      "inputs": [
        {
          "internalType": "address",
          "name": "token",
          "type": "address"
        },
        {
          "internalType": "uint256",
          "name": "currentSubscribers",
          "type": "uint256"
        }
      ],
      "name": "updateEngagementMetrics",
      "outputs": [],
      "stateMutability": "nonpayable",
      "type": "function"
    },
    {
      "stateMutability": "payable",
      "type": "receive"
    }
  ],
  "bytecode": "0x60803461011a57601f611ed238819003918201601f19168301916001600160401b0383118484101761011f5780849260609460405283398101031261011a5761004781610135565b90610060604061005960208401610135565b9201610135565b9033156101045760008054336001600160a01b0319821681178355604051959290916001600160a01b0316907f8be0079c531659141344cd1fd0a4f28419497f9722a3daafe3b4186f6b6457e09080a3600180556101f4600655600280546001600160a01b03199081166001600160a01b039384161790915560038054821693831693909317909255600580549092169216919091179055611d88908161014a8239f35b631e4fbdf760e01b600052600060045260246000fd5b600080fd5b634e487b7160e01b600052604160045260246000fd5b51906001600160a01b038216820361011a5756fe6080604052600436101561000f57005b6000803560e01c8063094ab4ac1461145e57806333827438146114355780633417c3d0146113885780633f80aace1461103c578063484685b01461100f5780634eeba07214610f6c5780635c975abb14610f46578063692058c214610f1d5780636cbb348614610e8d578063700d53a714610e4e5780637093f47f14610e0f578063715018a614610db557806388ed751214610d8c57806389312c3514610d6e5780638da5cb5b14610d475780638e3b58e214610d205780638f8f54b314610d025780639a44f1fb14610cb15780639c3ba48b14610a465780639da0b6b514610a22578063a734f06e14610a06578063b263fd06146108e7578063b96e422c146108c9578063bcdec018146106cc578063c4ae316814610656578063c6a55cbb14610617578063d196e9c61461045d578063f2fde38b146103d7578063f3683428146103ba578063fb99d5f4146101905763fc8022f21461016c57005b3461018d578060031936011261018d576020604051662386f26fc100008152f35b80fd5b503461018d57602036600319011261018d576101aa61174a565b6101b2611c38565b6101ba611c16565b6001600160a01b0316808252600760205260408220546101dc9060ff16611921565b6101f04715156101ea6119ac565b9061180c565b60025460408051630fa6707960e21b81526004810184905291829060249082906001600160a01b03165afa9081156103af57839161038e575b50818352600760205260408320805460ff1916905560025483906001600160a01b0316803b1561038a57818091602460405180948193633ee6757d60e21b83528960048401525af1801561037f57610366575b505060025460408051630fa6707960e21b81526004810185905291829060249082906001600160a01b03165afa90811561035b57849161032a575b5011156102ef577f8f626108ec6dbb00865cbc0da4f6cc0866bb2e90c351aa607b1a5f4d7607b7da6020604051428152a26001805580f35b60405162461bcd60e51b8152602060048201526013602482015272131a5c5d5a591a5d1e481b9bdd081859191959606a1b6044820152606490fd5b61034c915060403d604011610354575b61034481836117a1565b810190611c00565b9050386102b7565b503d61033a565b6040513d86823e3d90fd5b81610370916117a1565b61037b57823861027c565b8280fd5b6040513d84823e3d90fd5b5080fd5b6103a7915060403d6040116103545761034481836117a1565b905038610229565b6040513d85823e3d90fd5b503461018d578060031936011261018d576020604051610e108152f35b503461018d57602036600319011261018d576103f161174a565b6103f9611c38565b6001600160a01b031680156104495781546001600160a01b03198116821783556001600160a01b03167f8be0079c531659141344cd1fd0a4f28419497f9722a3daafe3b4186f6b6457e08380a380f35b631e4fbdf760e01b82526004829052602482fd5b50604036600319011261018d5761047261174a565b906024359161048960ff60055460a01c1615611760565b610491611c16565b6001600160a01b03166104ad6104a56117d9565b82151561180c565b6040926104e684516104bf86826117a1565b6012815271125b9d985b1a590811551208185b5bdd5b9d60721b602082015234151561180c565b81835260076020526104fe60ff85852054161561186f565b818352600460205261051560ff85852054166118bb565b60018060a01b03600354166020600654606487518094819363017bd7b160e61b8352886004840152876024840152604483015234905af193841561060c57936105d3575b50821061059b57916020927f24470b903c80b0a65eac40035ba60bd462c0a34058d48d906c9aaeb466ccc2248280513481528587820152a26001805551908152f35b825162461bcd60e51b81526020600482015260116024820152700a6d8d2e0e0c2ceca40e8dede40d0d2ced607b1b6044820152606490fd5b9092506020813d602011610604575b816105ef602093836117a1565b810103126105ff57519138610559565b600080fd5b3d91506105e2565b8551903d90823e3d90fd5b503461018d57602036600319011261018d5760209060ff906040906001600160a01b0361064261174a565b168152600784522054166040519015158152f35b503461018d578060031936011261018d5761066f611c38565b60055460ff60a01b60ff8260a01c161560a01b169060ff60a01b1916178060055542600a556040514281527fa965406db9d595b01329adb8152ce3b8bac4b7bfb1e705308939fb0c4a88318c602060ff339460a01c16151592a380f35b503461018d57608036600319011261018d576106e661174a565b6024356001600160a01b03811691908281036108c557604435916064359060038210156108c157610715611c38565b61071d611c16565b6001600160a01b031691610732831515611b87565b841561087c5761074a60ff60055460a01c1615611760565b6040516370a0823160e01b8152306004820152602081602481875afa90811561087157879161083f575b5084116107fa576107f394837fd6904cf5b5e9f829853e263f3843fac5453fd36b81cec3559c5018a0de89d64e6107b66107ee95604051918291428b84611bcb565b0390a360405163a9059cbb60e01b60208201526001600160a01b039190911660248201526044808201949094529283526064836117a1565b611cf7565b6001805580f35b60405162461bcd60e51b815260206004820152601a60248201527f496e73756666696369656e7420746f6b656e2062616c616e63650000000000006044820152606490fd5b90506020813d602011610869575b8161085a602093836117a1565b810103126105ff575138610774565b3d915061084d565b6040513d89823e3d90fd5b60405162461bcd60e51b815260206004820152601960248201527f496e76616c696420726563697069656e742061646472657373000000000000006044820152606490fd5b8580fd5b8380fd5b503461018d578060031936011261018d576020600654604051908152f35b503461018d57606036600319011261018d576004356001600160a01b0381169081810361037b5760243590604435926003841015610a0257610927611c38565b61092f611c16565b80156109cb57847fd6904cf5b5e9f829853e263f3843fac5453fd36b81cec3559c5018a0de89d64e6109c36107f39661097060ff60055460a01c1615611760565b6109b547881115604051906109866040836117a1565b601882527f496e73756666696369656e74204554482062616c616e63650000000000000000602083015261180c565b604051918291428984611bcb565b0390a3611c61565b60405162461bcd60e51b815260206004820152600f60248201526e496e76616c6964206164647265737360881b6044820152606490fd5b8480fd5b503461018d578060031936011261018d57602090604051908152f35b503461018d578060031936011261018d576020604051683635c9adc5dea000008152f35b503461018d57602036600319011261018d57610a6061174a565b610a68611c38565b6001600160a01b0316610a7c811515611b87565b808252600460205260ff604083205416610c75576040516318160ddd60e01b8152602081600481855afa9081156103af578391610c43575b5015610c0657808252600760205260ff604083205416610bc157600254604051633a54963360e11b81526004810183905290602090829060249082906001600160a01b03165afa9081156103af578391610b92575b5015610b4d57807f017664858438d89f547fee46da0bcfc5396ea13a9fb1490b8fdd76cfa979f1a98380a28152600460205260408120805460ff1916600117905580f35b60405162461bcd60e51b815260206004820152601b60248201527f4c697175696469747920706f6f6c206e6f7420747261636b65642100000000006044820152606490fd5b610bb4915060203d602011610bba575b610bac81836117a1565b810190611909565b38610b09565b503d610ba2565b60405162461bcd60e51b815260206004820152601e60248201527f546f6b656e207374696c6c20696e20707269636520646973636f7665727900006044820152606490fd5b60405162461bcd60e51b8152602060048201526015602482015274546f6b656e20686173207a65726f20737570706c7960581b6044820152606490fd5b90506020813d602011610c6d575b81610c5e602093836117a1565b810103126105ff575138610ab4565b3d9150610c51565b60405162461bcd60e51b8152602060048201526014602482015273151bdad95b88185b1c9958591e481b1a5cdd195960621b6044820152606490fd5b503461018d578060031936011261018d57600554600a5460609260a09290921c60ff16918115610cfc5750610ce681426119e7565b905b604051921515835260208301526040820152f35b90610ce8565b503461018d578060031936011261018d576020600a54604051908152f35b503461018d57602036600319011261018d576020610d3f600435611b54565b604051908152f35b503461018d578060031936011261018d57546040516001600160a01b039091168152602090f35b503461018d578060031936011261018d576020600954604051908152f35b503461018d578060031936011261018d576005546040516001600160a01b039091168152602090f35b503461018d578060031936011261018d57610dce611c38565b80546001600160a01b03198116825581906001600160a01b03167f8be0079c531659141344cd1fd0a4f28419497f9722a3daafe3b4186f6b6457e08280a380f35b503461018d57602036600319011261018d5760209060ff906040906001600160a01b03610e3a61174a565b168152600484522054166040519015158152f35b503461018d57602036600319011261018d5760209060ff906040906001600160a01b03610e7961174a565b168152600884522054166040519015158152f35b50604036600319011261018d57610ea261174a565b610eaa611c38565b6002546040516256688760e81b81526001600160a01b0392831660048201526024808201859052909260209284926044928492913591165af1801561037f57610ef1575080f35b610f129060203d602011610f16575b610f0a81836117a1565b8101906118fa565b5080f35b503d610f00565b503461018d578060031936011261018d576003546040516001600160a01b039091168152602090f35b503461018d578060031936011261018d57602060ff60055460a01c166040519015158152f35b503461018d57602036600319011261018d577f07af09e2b23ebab5dd29fa2271d6ca4795031f308caf26ca605f4a719ffeed616040600435610fac611c38565b80151580611003575b8251610fed91610fc585836117a1565b6016825275496e76616c696420736c6970706167652076616c756560501b602083015261180c565b600654908060065582519182526020820152a180f35b50611388811115610fb5565b503461018d57602036600319011261018d5761103961102c61174a565b611034611c38565b611a0a565b80f35b50604036600319011261018d5761105161174a565b60243560055461106760ff8260a01c1615611760565b6001600160a01b03163303611354576001600160a01b0382168084526007602052604084205490929060ff1661130f576110aa6110a2611966565b83151561180c565b6110b382611b54565b916110c76110bf6119ac565b84151561180c565b8234106112d257838552600760205260408520805460ff1916600117905560025485926001600160a01b039190911691823b156108c557604051632324f29f60e21b81526001600160a01b0392909216600483015260248201529082908290604490829087905af1801561037f576112bd575b5050611144611c38565b61114f821515611b87565b818352600460205260ff604084205416610c75576040516318160ddd60e01b8152602081600481865afa90811561035b57849161128b575b5015610c0657818352600760205260ff604084205416610bc157600254604051633a54963360e11b81526004810184905290602090829060249082906001600160a01b03165afa90811561035b57849161126c575b5015610b4d5760207fd6d6d534b6d189e6da779fc9a8cc9ab4bd2680e9443079b472ebd776e7b5728a91837f017664858438d89f547fee46da0bcfc5396ea13a9fb1490b8fdd76cfa979f1a98680a28385526004825260408520805460ff1916600117905561124b81346119e7565b8061125c575b50604051908152a280f35b6112669033611c61565b38611251565b611285915060203d602011610bba57610bac81836117a1565b386111dc565b90506020813d6020116112b5575b816112a6602093836117a1565b810103126105ff575138611187565b3d9150611299565b816112c7916117a1565b61037b57823861113a565b60405162461bcd60e51b8152602060048201526015602482015274125b9cdd59999a58da595b9d08115512081cd95b9d605a1b6044820152606490fd5b60405162461bcd60e51b815260206004820152601a60248201527f546f6b656e20616c726561647920696e20646973636f766572790000000000006044820152606490fd5b60405162461bcd60e51b815260206004820152600c60248201526b155b985d5d1a1bdc9a5e995960a21b6044820152606490fd5b503461018d57604036600319011261018d57806113a361174a565b6113ab611c38565b6001600160a01b0381168252600760205260408220546113cd9060ff16611921565b6002546001600160a01b0316803b156114315760405163271ac57960e11b81526001600160a01b03929092166004830152602480359083015282908290604490829084905af1801561037f576114205750f35b8161142a916117a1565b61018d5780f35b5050fd5b503461018d578060031936011261018d576002546040516001600160a01b039091168152602090f35b503461018d57606036600319011261018d5761147861174a565b6024356044359161149160ff60055460a01c1615611760565b611499611c16565b6001600160a01b0316906114ae6110a26117d9565b80156116f95781845260076020526114cd60ff6040862054161561186f565b81845260046020526114e560ff6040862054166118bb565b61151f6040516323b872dd60e01b6020820152336024820152306044820152826064820152606481526115196084826117a1565b83611cf7565b600354604051636eb1769f60e11b81523060048201526001600160a01b039091166024820181905290602081604481875afa9081156116ee5786916116bc575b5061166f575b5060035460405163095ea7b360e01b81526001600160a01b0390911660048201526024810182905260208160448188875af1801561164757611652575b5060035460065485916001600160a01b0316803b1561037b57608483926040519485938492630389946d60e31b84528960048501528860248501528a604485015260648401525af1801561164757916020956040927f25f023a18bcf3ea9eef96a3233ebcfd450a2a49aed87fac4c44e94a8926d0dab94611637575b505081519081528486820152a260018055604051908152f35b81611641916117a1565b3861161e565b6040513d87823e3d90fd5b61166a9060203d602011610bba57610bac81836117a1565b6115a2565b6040519063095ea7b360e01b8252600482015284602482015260208160448188875af180156116475715611565576116b59060203d602011610bba57610bac81836117a1565b5038611565565b90506020813d6020116116e6575b816116d7602093836117a1565b810103126108c157513861155f565b3d91506116ca565b6040513d88823e3d90fd5b60405162461bcd60e51b815260206004820152602360248201527f546f6b656e20616d6f756e74206d75737420626520677265617465722074686160448201526206e20360ec1b6064820152608490fd5b600435906001600160a01b03821682036105ff57565b1561176757565b60405162461bcd60e51b815260206004820152601260248201527110dbdb9d1c9858dd081a5cc81c185d5cd95960721b6044820152606490fd5b90601f8019910116810190811067ffffffffffffffff8211176117c357604052565b634e487b7160e01b600052604160045260246000fd5b604051906117e86040836117a1565b601582527424b73b30b634b21031b932b0ba37b9103a37b5b2b760591b6020830152565b156118145750565b6040519062461bcd60e51b8252602060048301528181519182602483015260005b8381106118575750508160006044809484010152601f80199101168101030190fd5b60208282018101516044878401015285935001611835565b1561187657565b60405162461bcd60e51b815260206004820152601860248201527f546f6b656e20696e20707269636520646973636f7665727900000000000000006044820152606490fd5b156118c257565b60405162461bcd60e51b815260206004820152601060248201526f151bdad95b881b9bdd081b1a5cdd195960821b6044820152606490fd5b908160209103126105ff575190565b908160209103126105ff575180151581036105ff5790565b1561192857565b60405162461bcd60e51b8152602060048201526016602482015275546f6b656e206e6f7420696e20646973636f7665727960501b6044820152606490fd5b604051906119756060836117a1565b6022825261726f60f01b6040837f496e697469616c2073756273637269626572732063616e6e6f74206265207a6560208201520152565b604051906119bb6040836117a1565b602082527f496e697469616c206c69717569646974792063616e6e6f74206265207a65726f6020830152565b919082039182116119f457565b634e487b7160e01b600052601160045260246000fd5b6001600160a01b03168015611b5157600254604051636eb1769f60e11b81523060048201526001600160a01b039091166024820181905290602081604481865afa908115611afb57600091611b1f575b50151580611b07575b611a6b575050565b6040519063095ea7b360e01b82526004820152600060248201526020816044816000865af18015611afb57611ade575b50806000526008602052604060002060ff1981541690557f3e776e19fc0f05c1b8270744b61c5729d5d1a5d8dded1bfb81e3979e257edd596020604051428152a2565b611af69060203d602011610bba57610bac81836117a1565b611a9b565b6040513d6000823e3d90fd5b5081600052600860205260ff60406000205416611a63565b90506020813d602011611b49575b81611b3a602093836117a1565b810103126105ff575138611a5a565b3d9150611b2d565b50565b8015611b68611b61611966565b821561180c565b662386f26fc100008202918204662386f26fc100001417156119f45790565b15611b8e57565b60405162461bcd60e51b8152602060048201526015602482015274496e76616c696420746f6b656e206164647265737360581b6044820152606490fd5b909392916060820194825260208201526003821015611bea5760400152565b634e487b7160e01b600052602160045260246000fd5b91908260409103126105ff576020825192015190565b600260015414611c27576002600155565b633ee5aeb560e01b60005260046000fd5b6000546001600160a01b03163303611c4c57565b63118cdaa760e01b6000523360045260246000fd5b6000918291829182916001600160a01b0316617530f13d15611cf2573d67ffffffffffffffff81116117c35760405190611ca5601f8201601f1916602001836117a1565b8152600060203d92013e5b15611cb757565b60405162461bcd60e51b8152602060048201526013602482015272115512081d1c985b9cd9995c8819985a5b1959606a1b6044820152606490fd5b611cb0565b906000602091828151910182855af115611afb576000513d611d4957506001600160a01b0381163b155b611d285750565b635274afe760e01b60009081526001600160a01b0391909116600452602490fd5b60011415611d2156fea2646970667358221220972a2287b1365a176820d6e7d1d118588095155e38ab9b6b37d35baee50e342764736f6c634300081c0033",
  "linkReferences": {},
  "deployedLinkReferences": {}
}