{
  "_format": "hh-sol-artifact-1",
  "contractName": "CreatorToken",
  "sourceName": "contracts/CreatorCoin.sol",
  "abi": [
    {
      "inputs": [],
      "stateMutability": "nonpayable",
      "type": "constructor"
    },
    {
      "inputs": [
        {
          "internalType": "address",
          "name": "target",
          "type": "address"
        }
      ],
      "name": "AddressEmptyCode",
      "type": "error"
    },
    {
      "inputs": [
        {
          "internalType": "address",
          "name": "implementation",
          "type": "address"
        }
      ],
      "name": "ERC1967InvalidImplementation",
      "type": "error"
    },
    {
      "inputs": [],
      "name": "ERC1967NonPayable",
      "type": "error"
    },
    {
      "inputs": [],
      "name": "FailedCall",
      "type": "error"
    },
    {
      "inputs": [],
      "name": "InvalidInitialization",
      "type": "error"
    },
    {
      "inputs": [],
      "name": "NotInitializing",
      "type": "error"
    },
    {
      "inputs": [
        {
          "internalType": "address",
          "name": "owner",
          "type": "address"
        }
      ],
      "name": "OwnableInvalidOwner",
      "type": "error"
    },
    {
      "inputs": [
        {
          "internalType": "address",
          "name": "account",
          "type": "address"
        }
      ],
      "name": "OwnableUnauthorizedAccount",
      "type": "error"
    },
    {
      "inputs": [],
      "name": "UUPSUnauthorizedCallContext",
      "type": "error"
    },
    {
      "inputs": [
        {
          "internalType": "bytes32",
          "name": "slot",
          "type": "bytes32"
        }
      ],
      "name": "UUPSUnsupportedProxiableUUID",
      "type": "error"
    },
    {
      "anonymous": false,
      "inputs": [
        {
          "indexed": true,
          "internalType": "address",
          "name": "previousAdmin",
          "type": "address"
        },
        {
          "indexed": true,
          "internalType": "address",
          "name": "newAdmin",
          "type": "address"
        }
      ],
      "name": "AdminChanged",
      "type": "event"
    },
    {
      "anonymous": false,
      "inputs": [
        {
          "indexed": true,
          "internalType": "address",
          "name": "oldImplementation",
          "type": "address"
        },
        {
          "indexed": true,
          "internalType": "address",
          "name": "newImplementation",
          "type": "address"
        }
      ],
      "name": "ContractUpgraded",
      "type": "event"
    },
    {
      "anonymous": false,
      "inputs": [
        {
          "indexed": true,
          "internalType": "address",
          "name": "tokenAddress",
          "type": "address"
        },
        {
          "indexed": false,
          "internalType": "string",
          "name": "creatorName",
          "type": "string"
        },
        {
          "indexed": false,
          "internalType": "string",
          "name": "channelLink",
          "type": "string"
        },
        {
          "indexed": false,
          "internalType": "string",
          "name": "symbol",
          "type": "string"
        },
        {
          "indexed": false,
          "internalType": "uint256",
          "name": "supply",
          "type": "uint256"
        },
        {
          "indexed": false,
          "internalType": "string",
          "name": "milestone",
          "type": "string"
        }
      ],
      "name": "CreatorTokenMinted",
      "type": "event"
    },
    {
      "anonymous": false,
      "inputs": [
        {
          "indexed": false,
          "internalType": "uint64",
          "name": "version",
          "type": "uint64"
        }
      ],
      "name": "Initialized",
      "type": "event"
    },
    {
      "anonymous": false,
      "inputs": [
        {
          "indexed": true,
          "internalType": "address",
          "name": "previousOwner",
          "type": "address"
        },
        {
          "indexed": true,
          "internalType": "address",
          "name": "newOwner",
          "type": "address"
        }
      ],
      "name": "OwnershipTransferred",
      "type": "event"
    },
    {
      "anonymous": false,
      "inputs": [
        {
          "indexed": true,
          "internalType": "address",
          "name": "implementation",
          "type": "address"
        }
      ],
      "name": "Upgraded",
      "type": "event"
    },
    {
      "inputs": [],
      "name": "UPGRADE_INTERFACE_VERSION",
      "outputs": [
        {
          "internalType": "string",
          "name": "",
          "type": "string"
        }
      ],
      "stateMutability": "view",
      "type": "function"
    },
    {
      "inputs": [
        {
          "internalType": "string",
          "name": "",
          "type": "string"
        }
      ],
      "name": "creatorTokens",
      "outputs": [
        {
          "internalType": "address",
          "name": "",
          "type": "address"
        }
      ],
      "stateMutability": "view",
      "type": "function"
    },
    {
      "inputs": [
        {
          "internalType": "string",
          "name": "channelLink",
          "type": "string"
        }
      ],
      "name": "getCreatorToken",
      "outputs": [
        {
          "internalType": "address",
          "name": "",
          "type": "address"
        }
      ],
      "stateMutability": "view",
      "type": "function"
    },
    {
      "inputs": [],
      "name": "getImplementation",
      "outputs": [
        {
          "internalType": "address",
          "name": "",
          "type": "address"
        }
      ],
      "stateMutability": "view",
      "type": "function"
    },
    {
      "inputs": [
        {
          "internalType": "address",
          "name": "_admin",
          "type": "address"
        }
      ],
      "name": "initialize",
      "outputs": [],
      "stateMutability": "nonpayable",
      "type": "function"
    },
    {
      "inputs": [
        {
          "internalType": "string",
          "name": "",
          "type": "string"
        }
      ],
      "name": "isTokenMinted",
      "outputs": [
        {
          "internalType": "bool",
          "name": "",
          "type": "bool"
        }
      ],
      "stateMutability": "view",
      "type": "function"
    },
    {
      "inputs": [
        {
          "internalType": "address",
          "name": "creator",
          "type": "address"
        },
        {
          "internalType": "string",
          "name": "name",
          "type": "string"
        },
        {
          "internalType": "string",
          "name": "image",
          "type": "string"
        },
        {
          "internalType": "string",
          "name": "channelLink",
          "type": "string"
        },
        {
          "internalType": "uint256",
          "name": "subscribers",
          "type": "uint256"
        }
      ],
      "name": "mintToken",
      "outputs": [],
      "stateMutability": "nonpayable",
      "type": "function"
    },
    {
      "inputs": [],
      "name": "owner",
      "outputs": [
        {
          "internalType": "address",
          "name": "",
          "type": "address"
        }
      ],
      "stateMutability": "view",
      "type": "function"
    },
    {
      "inputs": [],
      "name": "proxiableUUID",
      "outputs": [
        {
          "internalType": "bytes32",
          "name": "",
          "type": "bytes32"
        }
      ],
      "stateMutability": "view",
      "type": "function"
    },
    {
      "inputs": [],
      "name": "renounceOwnership",
      "outputs": [],
      "stateMutability": "nonpayable",
      "type": "function"
    },
    {
      "inputs": [
        {
          "internalType": "address",
          "name": "newOwner",
          "type": "address"
        }
      ],
      "name": "transferOwnership",
      "outputs": [],
      "stateMutability": "nonpayable",
      "type": "function"
    },
    {
      "inputs": [
        {
          "internalType": "address",
          "name": "newImplementation",
          "type": "address"
        },
        {
          "internalType": "bytes",
          "name": "data",
          "type": "bytes"
        }
      ],
      "name": "upgradeToAndCall",
      "outputs": [],
      "stateMutability": "payable",
      "type": "function"
    }
  ],
  "bytecode": "0x60a080604052346100ea57306080527ff0c57e16840df040f15088dc2f81fe391c3923bec73e23a9662efc9c229c6a005460ff8160401c166100d9576002600160401b03196001600160401b03821601610073575b6040516124d390816100f0823960805181818161081d01526108c30152f35b6001600160401b0319166001600160401b039081177ff0c57e16840df040f15088dc2f81fe391c3923bec73e23a9662efc9c229c6a005581527fc7f505b2f371ae2175ee4913f4499e1f2633a7b5936321eed1cdaeb6115181d290602090a13880610054565b63f92ee8a960e01b60005260046000fd5b600080fdfe6080604052600436101561001257600080fd5b60003560e01c80632050321914610ab25780633680dc7614610ab25780634f1ef2861461087457806352d1902d1461080a578063715018a6146107a05780638396c9551461073e5780638da5cb5b14610708578063aaf10f42146106d2578063ad3cb1cc14610687578063c4d66de81461052b578063f2fde38b146104ae5763fe394ed9146100a057600080fd5b346104a95760a03660031901126104a9576100b9610bd1565b60243567ffffffffffffffff81116104a9576100d9903690600401610b90565b9060443567ffffffffffffffff81116104a9576100fa903690600401610b90565b9160643567ffffffffffffffff81116104a95761011b903690600401610b90565b91608435610127610c0c565b6040519160ff8551936020818189019661014281838a610bae565b8101600181520301902054166104565760408051956101618288610b1b565b60038752601f19820136602089013760005b600381108061044c575b156102215761018c8188610cb8565b516001600160f81b03198116606160f81b81101580610213575b156101fe575060f81c601f190160ff81116101e85760f81b6001600160f81b03191660001a6101d5828a610cb8565b535b60001981146101e857600101610173565b634e487b7160e01b600052601160045260246000fd5b905060001a61020d828a610cb8565b536101d7565b50603d60f91b8111156101a6565b50869088969596835161026560066020838b61024581518092858086019101610bae565b810165102a37b5b2b760d11b838201520301601919810184520182610b1b565b61026e87610cdf565b95670de0b6b3a7640000880297808904670de0b6b3a764000014811517156101e8578651936115e5908186019286841067ffffffffffffffff8511176104365761031761030961032b938f8d6102fb916102ee8f6102e08f9e8f8e6101009e61012092610e5990398181520190610be7565b8c810360208e015290610be7565b918a8303908b0152610be7565b908782036060890152610be7565b858103608087015289610be7565b9060a085015283810360c08501528a610be7565b60e083018b90526001600160a01b0390931691015203906000f0801561042b57610426936103f896936104067fed99aea49901ab7b29e5edf7f905c5b582fbf2f50d5f1e981973be9759c34dad9997946103d060206104139660018060a01b03169d8e87518381875161039f818388610bae565b81016000815203019020906bffffffffffffffffffffffff60a01b8254161790558651809381928651928391610bae565b81016001815203019020600160ff198254161790558351998a9960a08b5260a08b0190610be7565b9089820360208b0152610be7565b9187830390880152610be7565b9160608501528382036080850152610be7565b0390a2005b83513d6000823e3d90fd5b634e487b7160e01b600052604160045260246000fd5b508651811061017d565b60405162461bcd60e51b815260206004820152602560248201527f546f6b656e20616c7265616479206d696e74656420666f722074686973206368604482015264185b9b995b60da1b6064820152608490fd5b600080fd5b346104a95760203660031901126104a9576104c7610bd1565b6104cf610c0c565b60008051602061243e833981519152546001600160a01b0316906104f1610c0c565b6104fa81610c42565b6001600160a01b0316907f7e644d79422f17c01e4894b5f4f588d331ebfa28653d42ae832dc59e38c9798f600080a3005b346104a95760203660031901126104a957610544610bd1565b60008051602061247e8339815191525460ff8160401c16159167ffffffffffffffff82168015908161067f575b6001149081610675575b15908161066c575b5061065b5767ffffffffffffffff19821660011760008051602061247e833981519152556105c7918361062e575b506105ba610dc9565b6105c2610dc9565b610c42565b6105cf610dc9565b6105d557005b68ff00000000000000001960008051602061247e833981519152541660008051602061247e833981519152557fc7f505b2f371ae2175ee4913f4499e1f2633a7b5936321eed1cdaeb6115181d2602060405160018152a1005b68ffffffffffffffffff1916680100000000000000011760008051602061247e83398151915255836105b1565b63f92ee8a960e01b60005260046000fd5b90501584610583565b303b15915061057b565b849150610571565b346104a95760003660031901126104a9576106ce60408051906106aa8183610b1b565b60058252640352e302e360dc1b602083015251918291602083526020830190610be7565b0390f35b346104a95760003660031901126104a95760008051602061245e833981519152546040516001600160a01b039091168152602090f35b346104a95760003660031901126104a95760008051602061243e833981519152546040516001600160a01b039091168152602090f35b346104a95760203660031901126104a95760043567ffffffffffffffff81116104a95760ff61078a602061077781943690600401610b90565b8160405193828580945193849201610bae565b8101600181520301902054166040519015158152f35b346104a95760003660031901126104a9576107b9610c0c565b60008051602061243e83398151915280546001600160a01b031981169091556000906001600160a01b03167f8be0079c531659141344cd1fd0a4f28419497f9722a3daafe3b4186f6b6457e08280a3005b346104a95760003660031901126104a9577f00000000000000000000000000000000000000000000000000000000000000006001600160a01b0316300361086357602060405160008051602061245e8339815191528152f35b63703e46dd60e11b60005260046000fd5b60403660031901126104a957610888610bd1565b60243567ffffffffffffffff81116104a957366023820112156104a9576108b9903690602481600401359101610b59565b6001600160a01b037f000000000000000000000000000000000000000000000000000000000000000016308114908115610a8f575b50610863576108fb610c0c565b6040516001600160a01b038316929083307f2e4cc16c100f0b55e2df82ab0b1a7e294aa9cbd01b48fbaf622683fbc0507a49600080a36352d1902d60e01b8152602081600481875afa60009181610a5b575b506109675783634c9c8ce360e01b60005260045260246000fd5b8060008051602061245e833981519152859203610a475750813b15610a335760008051602061245e83398151915280546001600160a01b031916821790557fbc7cd75a20ee27fd9adebab32041f755214dbc6bffa90cc0225b39da2e5c2d3b600080a2815115610a1957600080836020610a0f95519101845af43d15610a11573d916109f283610b3d565b92610a006040519485610b1b565b83523d6000602085013e610df7565b005b606091610df7565b505034610a2257005b63b398979f60e01b60005260046000fd5b634c9c8ce360e01b60005260045260246000fd5b632a87526960e21b60005260045260246000fd5b9091506020813d602011610a87575b81610a7760209383610b1b565b810103126104a95751908561094d565b3d9150610a6a565b60008051602061245e833981519152546001600160a01b031614159050836108ee565b346104a95760203660031901126104a95760043567ffffffffffffffff81116104a957610ae56020913690600401610b90565b81610af96040519283815193849201610bae565b600090820190815281900382019020546040516001600160a01b039091168152f35b90601f8019910116810190811067ffffffffffffffff82111761043657604052565b67ffffffffffffffff811161043657601f01601f191660200190565b929192610b6582610b3d565b91610b736040519384610b1b565b8294818452818301116104a9578281602093846000960137010152565b9080601f830112156104a957816020610bab93359101610b59565b90565b60005b838110610bc15750506000910152565b8181015183820152602001610bb1565b600435906001600160a01b03821682036104a957565b90602091610c0081518092818552858086019101610bae565b601f01601f1916010190565b60008051602061243e833981519152546001600160a01b03163303610c2d57565b63118cdaa760e01b6000523360045260246000fd5b6001600160a01b03168015610ca25760008051602061243e83398151915280546001600160a01b0319811683179091556001600160a01b03167f8be0079c531659141344cd1fd0a4f28419497f9722a3daafe3b4186f6b6457e0600080a3565b631e4fbdf760e01b600052600060045260246000fd5b908151811015610cc9570160200190565b634e487b7160e01b600052603260045260246000fd5b62989680811015610d9557620f4240811015610d6257620186a01115610d2e57604051610d0d604082610b1b565b6011815270526973696e67205374617220426164676560781b602082015290565b604051610d3c604082610b1b565b60168152753130304b20537562736372696265727320426164676560501b602082015290565b50604051610d71604082610b1b565b6014815273314d20537562736372696265727320426164676560601b602082015290565b50604051610da4604082610b1b565b601581527431304d20537562736372696265727320426164676560581b602082015290565b60ff60008051602061247e8339815191525460401c1615610de657565b631afcd79f60e31b60005260046000fd5b90610e1d5750805115610e0c57805190602001fd5b63d6bda27560e01b60005260046000fd5b81511580610e4f575b610e2e575090565b639996b31560e01b60009081526001600160a01b0391909116600452602490fd5b50803b15610e2656fe608060405234610987576115e5803803806100198161098c565b928339810190610120818303126109875780516001600160401b03811161098757826100469183016109b1565b60208201519091906001600160401b03811161098757836100689183016109b1565b60408201519093906001600160401b038111610987578161008a9184016109b1565b60608301516001600160401b03811161098757826100a99185016109b1565b60808401516001600160401b03811161098757836100c89186016109b1565b60a085015160c086015190949193916001600160401b038211610987576100f09187016109b1565b9661010060e08701519601519660018060a01b038816809803610987578051906001600160401b0382116104ec5760035490600182811c9216801561097d575b60208310146104cc5781601f84931161090d575b50602090601f83116001146108a55760009261089a575b50508160011b916000199060031b1c1916176003555b8051906001600160401b0382116104ec5760045490600182811c92168015610890575b60208310146104cc5781601f849311610820575b50602090601f83116001146107b8576000926107ad575b50508160011b916000199060031b1c1916176004555b8051906001600160401b0382116104ec5760055490600182811c921680156107a3575b60208310146104cc5781601f84931161074f575b50602090601f83116001146106e7576000926106dc575b50508160011b916000199060031b1c1916176005555b8051906001600160401b0382116104ec5760065490600182811c921680156106d2575b60208310146104cc5781601f849311610662575b50602090601f83116001146105fa576000926105ef575b50508160011b916000199060031b1c1916176006555b8051906001600160401b0382116104ec5760075490600182811c921680156105e5575b60208310146104cc5781601f849311610575575b50602090601f831160011461050d57600092610502575b50508160011b916000199060031b1c1916176007555b60085582516001600160401b0381116104ec57600954600181811c911680156104e2575b60208210146104cc57601f8111610467575b506020601f821160011461040057819293946000926103f5575b50508160011b916000199060031b1c1916176009555b81156103df576002548181018091116103c9576002557fddf252ad1be2c89b69c2b068fc378daa952ba7f163c4a11628f55a4df523b3ef602060009284845283825260408420818154019055604051908152a3604051610bc89081610a1d8239f35b634e487b7160e01b600052601160045260246000fd5b63ec442f0560e01b600052600060045260246000fd5b015190503880610351565b601f198216906009600052806000209160005b81811061044f57509583600195969710610436575b505050811b01600955610367565b015160001960f88460031b161c19169055388080610428565b9192602060018192868b015181550194019201610413565b60096000527f6e1540171b6c0c960b71a7020d9f60077f6af931a8bbf590da0223dacf75c7af601f830160051c810191602084106104c2575b601f0160051c01905b8181106104b65750610337565b600081556001016104a9565b90915081906104a0565b634e487b7160e01b600052602260045260246000fd5b90607f1690610325565b634e487b7160e01b600052604160045260246000fd5b0151905038806102eb565b600760009081528281209350601f198516905b81811061055d5750908460019594939210610544575b505050811b01600755610301565b015160001960f88460031b161c19169055388080610536565b92936020600181928786015181550195019301610520565b60076000529091507fa66cc928b5edb82af9bd49922954155ab7b0942694bea4ce44661d9a8736c688601f840160051c810191602085106105db575b90601f859493920160051c01905b8181106105cc57506102d4565b600081558493506001016105bf565b90915081906105b1565b91607f16916102c0565b015190503880610287565b600660009081528281209350601f198516905b81811061064a5750908460019594939210610631575b505050811b0160065561029d565b015160001960f88460031b161c19169055388080610623565b9293602060018192878601518155019501930161060d565b60066000529091507ff652222313e28459528d920b65115c16c04f3efc82aaedc97be59f3f377c0d3f601f840160051c810191602085106106c8575b90601f859493920160051c01905b8181106106b95750610270565b600081558493506001016106ac565b909150819061069e565b91607f169161025c565b015190503880610223565b600560009081528281209350601f198516905b818110610737575090846001959493921061071e575b505050811b01600555610239565b015160001960f88460031b161c19169055388080610710565b929360206001819287860151815501950193016106fa565b90915060056000526020600020601f840160051c81019160208510610799575b90601f859493920160051c01905b81811061078a575061020c565b6000815584935060010161077d565b909150819061076f565b91607f16916101f8565b0151905038806101bf565b600460009081528281209350601f198516905b81811061080857509084600195949392106107ef575b505050811b016004556101d5565b015160001960f88460031b161c191690553880806107e1565b929360206001819287860151815501950193016107cb565b60046000529091507f8a35acfbc15ff81a39ae7d344fd709f28e8600b4aa8c65c6b64bfe7fe36bd19b601f840160051c81019160208510610886575b90601f859493920160051c01905b81811061087757506101a8565b6000815584935060010161086a565b909150819061085c565b91607f1691610194565b01519050388061015b565b600360009081528281209350601f198516905b8181106108f557509084600195949392106108dc575b505050811b01600355610171565b015160001960f88460031b161c191690553880806108ce565b929360206001819287860151815501950193016108b8565b60036000529091507fc2575a0e9e593c00f959f8c92f12db2869c3395a3b0502d05e2516446f71f85b601f840160051c81019160208510610973575b90601f859493920160051c01905b8181106109645750610144565b60008155849350600101610957565b9091508190610949565b91607f1691610130565b600080fd5b6040519190601f01601f191682016001600160401b038111838210176104ec57604052565b81601f82011215610987578051906001600160401b0382116104ec576109e0601f8301601f191660200161098c565b92828452602083830101116109875760005b828110610a0757505060206000918301015290565b806020809284010151828287010152016109f256fe6080604052600436101561001257600080fd5b60003560e01c806306fdde03146105a0578063095ea7b31461051a57806318160ddd146104fc5780631f6f90bd146104e057806323b872dd146103f3578063313ce567146103d757806370a082311461039d57806395d89b41146103815780639e2ce9d214610363578063a9059cbb14610332578063b057d39114610183578063b90497e014610167578063dbac78061461014b578063dd62ed3e146100fa5763e12afc1b146100c157600080fd5b346100f55760003660031901126100f5576100f16100dd610957565b60405191829160208352602083019061069c565b0390f35b600080fd5b346100f55760403660031901126100f5576101136106dd565b61011b6106f3565b6001600160a01b039182166000908152600160209081526040808320949093168252928352819020549051908152f35b346100f55760003660031901126100f5576100f16100dd610a12565b346100f55760003660031901126100f5576100f16100dd61089c565b346100f55760003660031901126100f55760405160006003548060011c90600181168015610328575b602083108114610314578285529081156102f857506001146102a1575b50819003601f01601f1916810167ffffffffffffffff81118282101761028b5760405260e06100f16101f96107e1565b60085490610278610208610709565b61026a61021361089c565b61025c61021e610957565b9361024e61022a610a12565b976102406040519d8d8f9e8f908152019061069c565b8c810360208e01529061069c565b908a820360408c015261069c565b9088820360608a015261069c565b90868203608088015261069c565b9160a085015283820360c085015261069c565b634e487b7160e01b600052604160045260246000fd5b600360009081529091507fc2575a0e9e593c00f959f8c92f12db2869c3395a3b0502d05e2516446f71f85b5b8282106102e2575060209150820101826101c9565b60018160209254838588010152019101906102cd565b90506020925060ff191682840152151560051b820101826101c9565b634e487b7160e01b84526022600452602484fd5b91607f16916101ac565b346100f55760403660031901126100f55761035861034e6106dd565b6024359033610acd565b602060405160018152f35b346100f55760003660031901126100f5576020600854604051908152f35b346100f55760003660031901126100f5576100f16100dd6107e1565b346100f55760203660031901126100f5576001600160a01b036103be6106dd565b1660005260006020526020604060002054604051908152f35b346100f55760003660031901126100f557602060405160128152f35b346100f55760603660031901126100f55761040c6106dd565b6104146106f3565b6001600160a01b0382166000818152600160209081526040808320338452909152902054909260443592916000198110610454575b506103589350610acd565b8381106104c35784156104ad57331561049757610358946000526001602052604060002060018060a01b0333166000526020528360406000209103905584610449565b634a1406b160e11b600052600060045260246000fd5b63e602df0560e01b600052600060045260246000fd5b8390637dc7a0d960e11b6000523360045260245260445260646000fd5b346100f55760003660031901126100f5576100f16100dd610709565b346100f55760003660031901126100f5576020600254604051908152f35b346100f55760403660031901126100f5576105336106dd565b6024359033156104ad576001600160a01b031690811561049757336000526001602052604060002082600052602052806040600020556040519081527f8c5be1e5ebec7d5bd14f71427d1e84f3dd0314c0f7b2291e5b200ac8c7c3b92560203392a3602060405160018152f35b346100f55760003660031901126100f55760405160006003548060011c90600181168015610692575b60208310811461031457828552908115610676575060011461061f575b50819003601f01601f191681019067ffffffffffffffff82118183101761028b576040829052602080835282916100f19183019061069c565b600360009081529091507fc2575a0e9e593c00f959f8c92f12db2869c3395a3b0502d05e2516446f71f85b5b828210610660575060209150820101826105e6565b600181602092548385880101520191019061064b565b90506020925060ff191682840152151560051b820101826105e6565b91607f16916105c9565b919082519283825260005b8481106106c8575050826000602080949584010152601f8019910116010190565b806020809284010151828286010152016106a7565b600435906001600160a01b03821682036100f557565b602435906001600160a01b03821682036100f557565b6040519060006005548060011c906001811680156107d7575b602083108114610314578286529081156107bb5750600114610764575b50829003601f01601f1916820167ffffffffffffffff81118382101761028b57604052565b600560009081529091507f036b6384b5eca791c62761152d0c79bb0604c104a5fb6f4eb0703f3154bb3db05b8282106107a55750602091508301013861073f565b6001816020925483858901015201910190610790565b90506020925060ff191682850152151560051b8301013861073f565b91607f1691610722565b6040519060006004548060011c90600181168015610892575b602083108114610314578286529081156107bb575060011461083b5750829003601f01601f1916820167ffffffffffffffff81118382101761028b57604052565b600460009081529091507f8a35acfbc15ff81a39ae7d344fd709f28e8600b4aa8c65c6b64bfe7fe36bd19b5b82821061087c5750602091508301013861073f565b6001816020925483858901015201910190610867565b91607f16916107fa565b6040519060006006548060011c9060018116801561094d575b602083108114610314578286529081156107bb57506001146108f65750829003601f01601f1916820167ffffffffffffffff81118382101761028b57604052565b600660009081529091507ff652222313e28459528d920b65115c16c04f3efc82aaedc97be59f3f377c0d3f5b8282106109375750602091508301013861073f565b6001816020925483858901015201910190610922565b91607f16916108b5565b6040519060006007548060011c90600181168015610a08575b602083108114610314578286529081156107bb57506001146109b15750829003601f01601f1916820167ffffffffffffffff81118382101761028b57604052565b600760009081529091507fa66cc928b5edb82af9bd49922954155ab7b0942694bea4ce44661d9a8736c6885b8282106109f25750602091508301013861073f565b60018160209254838589010152019101906109dd565b91607f1691610970565b6040519060006009548060011c90600181168015610ac3575b602083108114610314578286529081156107bb5750600114610a6c5750829003601f01601f1916820167ffffffffffffffff81118382101761028b57604052565b600960009081529091507f6e1540171b6c0c960b71a7020d9f60077f6af931a8bbf590da0223dacf75c7af5b828210610aad5750602091508301013861073f565b6001816020925483858901015201910190610a98565b91607f1691610a2b565b6001600160a01b0316908115610b7c576001600160a01b0316918215610b66576000828152806020526040812054828110610b4c5791604082827fddf252ad1be2c89b69c2b068fc378daa952ba7f163c4a11628f55a4df523b3ef958760209652828652038282205586815280845220818154019055604051908152a3565b916064928463391434e360e21b8452600452602452604452fd5b63ec442f0560e01b600052600060045260246000fd5b634b637e8f60e11b600052600060045260246000fdfea26469706673582212201cd7042b0386d5b3e3059a87231a898bf7fa7289fea83eb18e0bde8e282d1cc664736f6c634300081c00339016d09d72d40fdae2fd8ceac6b6234c7706214fd39c1cd1e609a0528c199300360894a13ba1a3210667c828492db98dca3e2076cc3735a920a3ca505d382bbcf0c57e16840df040f15088dc2f81fe391c3923bec73e23a9662efc9c229c6a00a26469706673582212208d4619d597f599879a1e80459447d958156800ffd1f38a833943ee2ee7656f7564736f6c634300081c0033",
  "linkReferences": {},
  "deployedLinkReferences": {}
}