{
  "_format": "hh-sol-artifact-1",
  "contractName": "CreatorERC20",
  "sourceName": "contracts/CreatorCoin.sol",
  "abi": [
    {
      "inputs": [
        {
          "internalType": "string",
          "name": "_name",
          "type": "string"
        },
        {
          "internalType": "string",
          "name": "_symbol",
          "type": "string"
        },
        {
          "internalType": "string",
          "name": "_creatorName",
          "type": "string"
        },
        {
          "internalType": "string",
          "name": "_imageURL",
          "type": "string"
        },
        {
          "internalType": "string",
          "name": "_channelLink",
          "type": "string"
        },
        {
          "internalType": "uint256",
          "name": "_subscribers",
          "type": "uint256"
        },
        {
          "internalType": "string",
          "name": "_milestone",
          "type": "string"
        },
        {
          "internalType": "uint256",
          "name": "_initialSupply",
          "type": "uint256"
        },
        {
          "internalType": "address",
          "name": "_creator",
          "type": "address"
        }
      ],
      "stateMutability": "nonpayable",
      "type": "constructor"
    },
    {
      "inputs": [
        {
          "internalType": "address",
          "name": "spender",
          "type": "address"
        },
        {
          "internalType": "uint256",
          "name": "allowance",
          "type": "uint256"
        },
        {
          "internalType": "uint256",
          "name": "needed",
          "type": "uint256"
        }
      ],
      "name": "ERC20InsufficientAllowance",
      "type": "error"
    },
    {
      "inputs": [
        {
          "internalType": "address",
          "name": "sender",
          "type": "address"
        },
        {
          "internalType": "uint256",
          "name": "balance",
          "type": "uint256"
        },
        {
          "internalType": "uint256",
          "name": "needed",
          "type": "uint256"
        }
      ],
      "name": "ERC20InsufficientBalance",
      "type": "error"
    },
    {
      "inputs": [
        {
          "internalType": "address",
          "name": "approver",
          "type": "address"
        }
      ],
      "name": "ERC20InvalidApprover",
      "type": "error"
    },
    {
      "inputs": [
        {
          "internalType": "address",
          "name": "receiver",
          "type": "address"
        }
      ],
      "name": "ERC20InvalidReceiver",
      "type": "error"
    },
    {
      "inputs": [
        {
          "internalType": "address",
          "name": "sender",
          "type": "address"
        }
      ],
      "name": "ERC20InvalidSender",
      "type": "error"
    },
    {
      "inputs": [
        {
          "internalType": "address",
          "name": "spender",
          "type": "address"
        }
      ],
      "name": "ERC20InvalidSpender",
      "type": "error"
    },
    {
      "anonymous": false,
      "inputs": [
        {
          "indexed": true,
          "internalType": "address",
          "name": "owner",
          "type": "address"
        },
        {
          "indexed": true,
          "internalType": "address",
          "name": "spender",
          "type": "address"
        },
        {
          "indexed": false,
          "internalType": "uint256",
          "name": "value",
          "type": "uint256"
        }
      ],
      "name": "Approval",
      "type": "event"
    },
    {
      "anonymous": false,
      "inputs": [
        {
          "indexed": true,
          "internalType": "address",
          "name": "from",
          "type": "address"
        },
        {
          "indexed": true,
          "internalType": "address",
          "name": "to",
          "type": "address"
        },
        {
          "indexed": false,
          "internalType": "uint256",
          "name": "value",
          "type": "uint256"
        }
      ],
      "name": "Transfer",
      "type": "event"
    },
    {
      "inputs": [
        {
          "internalType": "address",
          "name": "owner",
          "type": "address"
        },
        {
          "internalType": "address",
          "name": "spender",
          "type": "address"
        }
      ],
      "name": "allowance",
      "outputs": [
        {
          "internalType": "uint256",
          "name": "",
          "type": "uint256"
        }
      ],
      "stateMutability": "view",
      "type": "function"
    },
    {
      "inputs": [
        {
          "internalType": "address",
          "name": "spender",
          "type": "address"
        },
        {
          "internalType": "uint256",
          "name": "value",
          "type": "uint256"
        }
      ],
      "name": "approve",
      "outputs": [
        {
          "internalType": "bool",
          "name": "",
          "type": "bool"
        }
      ],
      "stateMutability": "nonpayable",
      "type": "function"
    },
    {
      "inputs": [
        {
          "internalType": "address",
          "name": "account",
          "type": "address"
        }
      ],
      "name": "balanceOf",
      "outputs": [
        {
          "internalType": "uint256",
          "name": "",
          "type": "uint256"
        }
      ],
      "stateMutability": "view",
      "type": "function"
    },
    {
      "inputs": [],
      "name": "channelLink",
      "outputs": [
        {
          "internalType": "string",
          "name": "",
          "type": "string"
        }
      ],
      "stateMutability": "view",
      "type": "function"
    },
    {
      "inputs": [],
      "name": "creatorName",
      "outputs": [
        {
          "internalType": "string",
          "name": "",
          "type": "string"
        }
      ],
      "stateMutability": "view",
      "type": "function"
    },
    {
      "inputs": [],
      "name": "decimals",
      "outputs": [
        {
          "internalType": "uint8",
          "name": "",
          "type": "uint8"
        }
      ],
      "stateMutability": "view",
      "type": "function"
    },
    {
      "inputs": [],
      "name": "getCreatorMetadata",
      "outputs": [
        {
          "internalType": "string",
          "name": "_name",
          "type": "string"
        },
        {
          "internalType": "string",
          "name": "_symbol",
          "type": "string"
        },
        {
          "internalType": "string",
          "name": "_creatorName",
          "type": "string"
        },
        {
          "internalType": "string",
          "name": "_imageURL",
          "type": "string"
        },
        {
          "internalType": "string",
          "name": "_channelLink",
          "type": "string"
        },
        {
          "internalType": "uint256",
          "name": "_subscribers",
          "type": "uint256"
        },
        {
          "internalType": "string",
          "name": "_milestone",
          "type": "string"
        }
      ],
      "stateMutability": "view",
      "type": "function"
    },
    {
      "inputs": [],
      "name": "imageURL",
      "outputs": [
        {
          "internalType": "string",
          "name": "",
          "type": "string"
        }
      ],
      "stateMutability": "view",
      "type": "function"
    },
    {
      "inputs": [],
      "name": "milestone",
      "outputs": [
        {
          "internalType": "string",
          "name": "",
          "type": "string"
        }
      ],
      "stateMutability": "view",
      "type": "function"
    },
    {
      "inputs": [],
      "name": "name",
      "outputs": [
        {
          "internalType": "string",
          "name": "",
          "type": "string"
        }
      ],
      "stateMutability": "view",
      "type": "function"
    },
    {
      "inputs": [],
      "name": "subscribers",
      "outputs": [
        {
          "internalType": "uint256",
          "name": "",
          "type": "uint256"
        }
      ],
      "stateMutability": "view",
      "type": "function"
    },
    {
      "inputs": [],
      "name": "symbol",
      "outputs": [
        {
          "internalType": "string",
          "name": "",
          "type": "string"
        }
      ],
      "stateMutability": "view",
      "type": "function"
    },
    {
      "inputs": [],
      "name": "totalSupply",
      "outputs": [
        {
          "internalType": "uint256",
          "name": "",
          "type": "uint256"
        }
      ],
      "stateMutability": "view",
      "type": "function"
    },
    {
      "inputs": [
        {
          "internalType": "address",
          "name": "to",
          "type": "address"
        },
        {
          "internalType": "uint256",
          "name": "value",
          "type": "uint256"
        }
      ],
      "name": "transfer",
      "outputs": [
        {
          "internalType": "bool",
          "name": "",
          "type": "bool"
        }
      ],
      "stateMutability": "nonpayable",
      "type": "function"
    },
    {
      "inputs": [
        {
          "internalType": "address",
          "name": "from",
          "type": "address"
        },
        {
          "internalType": "address",
          "name": "to",
          "type": "address"
        },
        {
          "internalType": "uint256",
          "name": "value",
          "type": "uint256"
        }
      ],
      "name": "transferFrom",
      "outputs": [
        {
          "internalType": "bool",
          "name": "",
          "type": "bool"
        }
      ],
      "stateMutability": "nonpayable",
      "type": "function"
    }
  ],
  "bytecode": "0x608060405234610987576115e5803803806100198161098c565b928339810190610120818303126109875780516001600160401b03811161098757826100469183016109b1565b60208201519091906001600160401b03811161098757836100689183016109b1565b60408201519093906001600160401b038111610987578161008a9184016109b1565b60608301516001600160401b03811161098757826100a99185016109b1565b60808401516001600160401b03811161098757836100c89186016109b1565b60a085015160c086015190949193916001600160401b038211610987576100f09187016109b1565b9661010060e08701519601519660018060a01b038816809803610987578051906001600160401b0382116104ec5760035490600182811c9216801561097d575b60208310146104cc5781601f84931161090d575b50602090601f83116001146108a55760009261089a575b50508160011b916000199060031b1c1916176003555b8051906001600160401b0382116104ec5760045490600182811c92168015610890575b60208310146104cc5781601f849311610820575b50602090601f83116001146107b8576000926107ad575b50508160011b916000199060031b1c1916176004555b8051906001600160401b0382116104ec5760055490600182811c921680156107a3575b60208310146104cc5781601f84931161074f575b50602090601f83116001146106e7576000926106dc575b50508160011b916000199060031b1c1916176005555b8051906001600160401b0382116104ec5760065490600182811c921680156106d2575b60208310146104cc5781601f849311610662575b50602090601f83116001146105fa576000926105ef575b50508160011b916000199060031b1c1916176006555b8051906001600160401b0382116104ec5760075490600182811c921680156105e5575b60208310146104cc5781601f849311610575575b50602090601f831160011461050d57600092610502575b50508160011b916000199060031b1c1916176007555b60085582516001600160401b0381116104ec57600954600181811c911680156104e2575b60208210146104cc57601f8111610467575b506020601f821160011461040057819293946000926103f5575b50508160011b916000199060031b1c1916176009555b81156103df576002548181018091116103c9576002557fddf252ad1be2c89b69c2b068fc378daa952ba7f163c4a11628f55a4df523b3ef602060009284845283825260408420818154019055604051908152a3604051610bc89081610a1d8239f35b634e487b7160e01b600052601160045260246000fd5b63ec442f0560e01b600052600060045260246000fd5b015190503880610351565b601f198216906009600052806000209160005b81811061044f57509583600195969710610436575b505050811b01600955610367565b015160001960f88460031b161c19169055388080610428565b9192602060018192868b015181550194019201610413565b60096000527f6e1540171b6c0c960b71a7020d9f60077f6af931a8bbf590da0223dacf75c7af601f830160051c810191602084106104c2575b601f0160051c01905b8181106104b65750610337565b600081556001016104a9565b90915081906104a0565b634e487b7160e01b600052602260045260246000fd5b90607f1690610325565b634e487b7160e01b600052604160045260246000fd5b0151905038806102eb565b600760009081528281209350601f198516905b81811061055d5750908460019594939210610544575b505050811b01600755610301565b015160001960f88460031b161c19169055388080610536565b92936020600181928786015181550195019301610520565b60076000529091507fa66cc928b5edb82af9bd49922954155ab7b0942694bea4ce44661d9a8736c688601f840160051c810191602085106105db575b90601f859493920160051c01905b8181106105cc57506102d4565b600081558493506001016105bf565b90915081906105b1565b91607f16916102c0565b015190503880610287565b600660009081528281209350601f198516905b81811061064a5750908460019594939210610631575b505050811b0160065561029d565b015160001960f88460031b161c19169055388080610623565b9293602060018192878601518155019501930161060d565b60066000529091507ff652222313e28459528d920b65115c16c04f3efc82aaedc97be59f3f377c0d3f601f840160051c810191602085106106c8575b90601f859493920160051c01905b8181106106b95750610270565b600081558493506001016106ac565b909150819061069e565b91607f169161025c565b015190503880610223565b600560009081528281209350601f198516905b818110610737575090846001959493921061071e575b505050811b01600555610239565b015160001960f88460031b161c19169055388080610710565b929360206001819287860151815501950193016106fa565b90915060056000526020600020601f840160051c81019160208510610799575b90601f859493920160051c01905b81811061078a575061020c565b6000815584935060010161077d565b909150819061076f565b91607f16916101f8565b0151905038806101bf565b600460009081528281209350601f198516905b81811061080857509084600195949392106107ef575b505050811b016004556101d5565b015160001960f88460031b161c191690553880806107e1565b929360206001819287860151815501950193016107cb565b60046000529091507f8a35acfbc15ff81a39ae7d344fd709f28e8600b4aa8c65c6b64bfe7fe36bd19b601f840160051c81019160208510610886575b90601f859493920160051c01905b81811061087757506101a8565b6000815584935060010161086a565b909150819061085c565b91607f1691610194565b01519050388061015b565b600360009081528281209350601f198516905b8181106108f557509084600195949392106108dc575b505050811b01600355610171565b015160001960f88460031b161c191690553880806108ce565b929360206001819287860151815501950193016108b8565b60036000529091507fc2575a0e9e593c00f959f8c92f12db2869c3395a3b0502d05e2516446f71f85b601f840160051c81019160208510610973575b90601f859493920160051c01905b8181106109645750610144565b60008155849350600101610957565b9091508190610949565b91607f1691610130565b600080fd5b6040519190601f01601f191682016001600160401b038111838210176104ec57604052565b81601f82011215610987578051906001600160401b0382116104ec576109e0601f8301601f191660200161098c565b92828452602083830101116109875760005b828110610a0757505060206000918301015290565b806020809284010151828287010152016109f256fe6080604052600436101561001257600080fd5b60003560e01c806306fdde03146105a0578063095ea7b31461051a57806318160ddd146104fc5780631f6f90bd146104e057806323b872dd146103f3578063313ce567146103d757806370a082311461039d57806395d89b41146103815780639e2ce9d214610363578063a9059cbb14610332578063b057d39114610183578063b90497e014610167578063dbac78061461014b578063dd62ed3e146100fa5763e12afc1b146100c157600080fd5b346100f55760003660031901126100f5576100f16100dd610957565b60405191829160208352602083019061069c565b0390f35b600080fd5b346100f55760403660031901126100f5576101136106dd565b61011b6106f3565b6001600160a01b039182166000908152600160209081526040808320949093168252928352819020549051908152f35b346100f55760003660031901126100f5576100f16100dd610a12565b346100f55760003660031901126100f5576100f16100dd61089c565b346100f55760003660031901126100f55760405160006003548060011c90600181168015610328575b602083108114610314578285529081156102f857506001146102a1575b50819003601f01601f1916810167ffffffffffffffff81118282101761028b5760405260e06100f16101f96107e1565b60085490610278610208610709565b61026a61021361089c565b61025c61021e610957565b9361024e61022a610a12565b976102406040519d8d8f9e8f908152019061069c565b8c810360208e01529061069c565b908a820360408c015261069c565b9088820360608a015261069c565b90868203608088015261069c565b9160a085015283820360c085015261069c565b634e487b7160e01b600052604160045260246000fd5b600360009081529091507fc2575a0e9e593c00f959f8c92f12db2869c3395a3b0502d05e2516446f71f85b5b8282106102e2575060209150820101826101c9565b60018160209254838588010152019101906102cd565b90506020925060ff191682840152151560051b820101826101c9565b634e487b7160e01b84526022600452602484fd5b91607f16916101ac565b346100f55760403660031901126100f55761035861034e6106dd565b6024359033610acd565b602060405160018152f35b346100f55760003660031901126100f5576020600854604051908152f35b346100f55760003660031901126100f5576100f16100dd6107e1565b346100f55760203660031901126100f5576001600160a01b036103be6106dd565b1660005260006020526020604060002054604051908152f35b346100f55760003660031901126100f557602060405160128152f35b346100f55760603660031901126100f55761040c6106dd565b6104146106f3565b6001600160a01b0382166000818152600160209081526040808320338452909152902054909260443592916000198110610454575b506103589350610acd565b8381106104c35784156104ad57331561049757610358946000526001602052604060002060018060a01b0333166000526020528360406000209103905584610449565b634a1406b160e11b600052600060045260246000fd5b63e602df0560e01b600052600060045260246000fd5b8390637dc7a0d960e11b6000523360045260245260445260646000fd5b346100f55760003660031901126100f5576100f16100dd610709565b346100f55760003660031901126100f5576020600254604051908152f35b346100f55760403660031901126100f5576105336106dd565b6024359033156104ad576001600160a01b031690811561049757336000526001602052604060002082600052602052806040600020556040519081527f8c5be1e5ebec7d5bd14f71427d1e84f3dd0314c0f7b2291e5b200ac8c7c3b92560203392a3602060405160018152f35b346100f55760003660031901126100f55760405160006003548060011c90600181168015610692575b60208310811461031457828552908115610676575060011461061f575b50819003601f01601f191681019067ffffffffffffffff82118183101761028b576040829052602080835282916100f19183019061069c565b600360009081529091507fc2575a0e9e593c00f959f8c92f12db2869c3395a3b0502d05e2516446f71f85b5b828210610660575060209150820101826105e6565b600181602092548385880101520191019061064b565b90506020925060ff191682840152151560051b820101826105e6565b91607f16916105c9565b919082519283825260005b8481106106c8575050826000602080949584010152601f8019910116010190565b806020809284010151828286010152016106a7565b600435906001600160a01b03821682036100f557565b602435906001600160a01b03821682036100f557565b6040519060006005548060011c906001811680156107d7575b602083108114610314578286529081156107bb5750600114610764575b50829003601f01601f1916820167ffffffffffffffff81118382101761028b57604052565b600560009081529091507f036b6384b5eca791c62761152d0c79bb0604c104a5fb6f4eb0703f3154bb3db05b8282106107a55750602091508301013861073f565b6001816020925483858901015201910190610790565b90506020925060ff191682850152151560051b8301013861073f565b91607f1691610722565b6040519060006004548060011c90600181168015610892575b602083108114610314578286529081156107bb575060011461083b5750829003601f01601f1916820167ffffffffffffffff81118382101761028b57604052565b600460009081529091507f8a35acfbc15ff81a39ae7d344fd709f28e8600b4aa8c65c6b64bfe7fe36bd19b5b82821061087c5750602091508301013861073f565b6001816020925483858901015201910190610867565b91607f16916107fa565b6040519060006006548060011c9060018116801561094d575b602083108114610314578286529081156107bb57506001146108f65750829003601f01601f1916820167ffffffffffffffff81118382101761028b57604052565b600660009081529091507ff652222313e28459528d920b65115c16c04f3efc82aaedc97be59f3f377c0d3f5b8282106109375750602091508301013861073f565b6001816020925483858901015201910190610922565b91607f16916108b5565b6040519060006007548060011c90600181168015610a08575b602083108114610314578286529081156107bb57506001146109b15750829003601f01601f1916820167ffffffffffffffff81118382101761028b57604052565b600760009081529091507fa66cc928b5edb82af9bd49922954155ab7b0942694bea4ce44661d9a8736c6885b8282106109f25750602091508301013861073f565b60018160209254838589010152019101906109dd565b91607f1691610970565b6040519060006009548060011c90600181168015610ac3575b602083108114610314578286529081156107bb5750600114610a6c5750829003601f01601f1916820167ffffffffffffffff81118382101761028b57604052565b600960009081529091507f6e1540171b6c0c960b71a7020d9f60077f6af931a8bbf590da0223dacf75c7af5b828210610aad5750602091508301013861073f565b6001816020925483858901015201910190610a98565b91607f1691610a2b565b6001600160a01b0316908115610b7c576001600160a01b0316918215610b66576000828152806020526040812054828110610b4c5791604082827fddf252ad1be2c89b69c2b068fc378daa952ba7f163c4a11628f55a4df523b3ef958760209652828652038282205586815280845220818154019055604051908152a3565b916064928463391434e360e21b8452600452602452604452fd5b63ec442f0560e01b600052600060045260246000fd5b634b637e8f60e11b600052600060045260246000fdfea26469706673582212201cd7042b0386d5b3e3059a87231a898bf7fa7289fea83eb18e0bde8e282d1cc664736f6c634300081c0033",
  "linkReferences": {},
  "deployedLinkReferences": {}
}